S00F0000435F426C696E6B2E7372656383
S11300000C9434000C943E000C943E000C943E007E
S11300100C943E000C943E000C943E000C943E0064
S11300200C943E000C943E000C943E000C943E0054
S11300300C943E000C943E000C943E000C943E0044
S11300400C943E000C943E000C943E000C943E0034
S11300500C943E000C943E000C943E000C943E0024
S11300600C943E000C943E0011241FBECFEFD8E048
S1130070DEBFCDBF0E9453000C9458000C940000C6
S113008001E004B905B904D0002705B901D0F8CFBF
S113009012E52BE230E03A95F1F72A95E1F71A954B
S11300A0D1F7C895089562E581E50E944000FBCF31
S10700B0F894FFCFEE
S9030000FC
